:1000000005308A00352D0000FF00030E8301A1009A
:100010000A08A0008A010408A2007708A300780853
:10002000A4007908A5007A08A600831383128B1D0B
:100030001B280B182C28220884002308F70024080A
:10004000F8002508F9002608FA0020088A00210E89
:100050008300FF0E7F0E09008A110A1237280A104A
:100060008A100A11820728340C34013406340B102C
:10007000FF3083168600831206083039A70028084F
:100080002702031954280030271A0130D600003007
:10009000A81A01305602031D50280130A902522827
:1000A0000130A9072708A8000B108A110A121B2883
:1000B0000C296533BD12EC3A201020000A28EF39D4
:1000C000BD12EC3A2000D02BCD1E253675004D30E8
:1000D00084008313000803197B280130F800F7011E
:1000E000F70B7028F80B6F284A30F700F70B7628CB
:1000F0007928800B6D280800540EF039F7000F3076
:1001000008057704880000000814862808100800F5
:100110000808F700080E0F39F800080083160810C9
:1001200088100811831288100F3083160805F038E4
:100130008800831208150000081400008820780841
:10014000D400081000000814000088207808D300AC
:1001500008100F308316080588008312540EF7002C
:10016000F030F70577085304F8007808D300D31B64
:100170009428511C881051188814000008110000A0
:100180000810520ED3000F30D3055308D4007C2042
:1001900052080F39D300D4007C2008000F3083169A
:1001A00008058800081088100811831288100811AB
:1001B00008100F30CD0067200130C1004108033C1A
:1001C000031CEA280330D4007C200530CD006720D2
:1001D000C10ADE280230D4007C200530CD00672023
:1001E000C1014108033C031CFE2841082F20C20026
:1001F000D1014208D2008E20C10AF1288A110A12C8
:100200004C2D8E30F7004608F8004508F900FA0139
:10021000F808031D15297908F800F9010830F702DC
:10022000F808031D1529F7011D290310F81B1C29C7
:10023000F90DF80DF7031529F813080045080319FF
:100240008E29CD00490803198E29CD0703182F29BF
:100250007F30CD02031C8E2903198E29332981306A
:10026000CD0703188E294D08F700F801F901FA01AE
:100270004608D100D1174708D0004808CF001830F1
:10028000CD00CE014F1C5C294C08FA07031C4E29F7
:10029000F90A031D4E29F80A0319CE174B08F9076E
:1002A000031C5529F80A0319CE174A08C700C717B7
:1002B0004708F8070318CE17CE0DF80CF90CFA0C06
:1002C000D10CD00CCF0C0310CD0B41290130F70716
:1002D00003188E29F81B7329D10DFA0DF90DF80DAD
:1002E000F70303198E29D11F8429FA0A031D8429D3
:1002F000F90A031D8429F80A031D8429F80CF90C56
:10030000FA0CF70A03198E294608CE004A08CE06D1
:10031000CE1F8C29F8179229F8139229F701F801BA
:10032000F901FA01080045080319582AD1004908C3
:100330000319582AD102031CA2297F30D1070318C0
:10034000582AA8298130D102031C582A0319582A97
:100350005108F700F801F901FA01D0014608CF0071
:10036000CF174708CE004808CD001930D1004C08FF
:10037000CD020318CB290130CE020318CB29CF02BE
:100380000318CB29D0020318CB29D00ACF0ACE0AF2
:100390004C08CD07FD294B08CE020318E629013091
:1003A000CF020318E629D0020318E629D00ACF0AA3
:1003B0004B08CE074C08CD07031CFD29CE0A031DB0
:1003C000FD29CF0A031DFD29D00AFD294A088038DE
:1003D000CF020318FC290130D0020318FC29D00AEF
:1003E0004A088038CF074B08CE07031CDA29CF0A0A
:1003F000031DDA29D00ADA297A14D10B002A0B2A34
:100400000310CD0DCE0DCF0DD00D0310FA0DF90D4B
:10041000F80DD20DB729521C132A0310F80CF90C51
:10042000FA0CD20C162AF7030319582AD21B3F2ABA
:100430000310CD0DCE0DCF0DD00D4C08CD020318FD
:100440002B2A0130CE0203182B2ACF0203182B2AA5
:10045000D002031C4E2A4B08CE020318362A013064
:10046000CF020318362AD002031C4E2A4A088038CD
:10047000CF0203183F2A0130D002031C4E2AFA0A89
:10048000031D4E2AF90A031D4E2AF80A031D4E2A9F
:10049000F70A0319582AF80CF90CFA0C4608D1008F
:1004A0004A08D106D11F562AF8175C2AF8135C2A8D
:1004B000F701F801F901FA01080080308318CA0633
:1004C000CF01D0014608CE004A08CE0645080319E0
:1004D0004D2BCD00F70049080319562BCD02031907
:1004E000F22A031CB02A4A08D300D3174B08D200C3
:1004F0004C08D100D0010310D30CD20CD10CD00C7D
:10050000CD0B7A2ACE1F872A4F146A2B4F104D101D
:100510004F164830840083137F2B4F12CE1B9A2A2C
:100520004D1CA52AD30CD20CD10CD00CF70A031900
:10053000652BA52AD31BA82A0310D00DD10DD20DEF
:10054000D30DF7030319652B9A2A4F17122B4F135C
:100550004608CE00CE1FAE2AD3175E2BD3135E2BD8
:100560004908CD00F7004508CD024608D300D3174F
:100570004708D2004808D100D0010310D30CD20C98
:10058000D10CD00CCD0BBC2ACE1FC92ACF146A2B9C
:10059000CF104D10CF164C30840083137F2BCF1219
:1005A000CE1BDC2A4D1CE72AD30CD20CD10CD00C6C
:1005B000F70A0319652BE72AD31BEA2A0310D00D8B
:1005C000D10DD20DD30DF7030319652BDC2ACF17FC
:1005D000122BCF134A08CE00CE1FF02AD3175E2B62
:1005E000D3135E2B4A08D300D3174B08D2004C0814
:1005F000D100CE1FFF2AD3134F156A2B4F11D00104
:100600004D104830840083137F2BCE1B282B4608C7
:10061000CE004D1C122BD30CD20CD10CD00CF70AEF
:100620000319652BD01F232BD10A031D232BD20ABC
:10063000031D232BD30A031D232BD30CD20CD10C67
:10064000F70A0319652B4F1BA72ACF1BE92A472B53
:100650008030D306D31F302B6A2B4A08CE003D2BA7
:100660004608CE00D308031D3D2BD208031D3D2BA9
:10067000D108031D3D2BF7015E2BD31B472B031025
:10068000D00DD10DD20DD30DF70B3D2B652BCE1F09
:100690004B2BD3175E2BD3135E2B4908F7004A0868
:1006A000D3004B08D2004C08D1005E2B4508F70060
:1006B0004608D3004708D2004808D1005308F80084
:1006C0005208F9005108FA009D2BF701F801F901D1
:1006D000FA019D2BD001D109D209D309D009D00A42
:1006E000031D782BD10A031D782BD20A0319D30AD4
:1006F0004F18862ACF18C82A4F19FE2A2D2B00081A
:10070000D107031C892BD20A031D892BD30A031995
:100710004D1484030008D207031C912BD30A03193C
:100720004D1484030008801F803AD30703184D142A
:100730004F1A8D2ACF1ACF2A052B08008E30F700CA
:100740004508F7024608F9004708F800F917F708C6
:100750000319B52B0310F908031DB12BF808031971
:10076000B52BF90CF80CF70BAA2BC61FBC2BF809FC
:10077000F909F80A0319F90A0800C601C501A91BFD
:10078000CC2B2908033C0318CC2B0130C5070318D8
:10079000C60A0430A902BF2B2908803A7C3C031CFE
:1007A000DA2B0130C5020030031C0130C6020430D0
:1007B000A907CC2B4508F8004608F9008A110A124F
:1007C000612EF801F901F701FA014608031DEB2B30
:1007D00045080319052C1030C7000310C30DC40DC4
:1007E000F70DFA0D46087A02031DF82B450877022B
:1007F000031C012C4508F702031CFA034608FA0201
:100800000314F80DF90DC70BED2B8A110A12B02E47
:100810004208C8004108C7004408CA004308C9008C
:100820001030CB00F701FA01C80CC70C031C1E2CBA
:100830004908F7070318FA0A4A08FA07FA0CF70CEE
:10084000F90CF80CCB0B142C7808C5007908C600FD
:10085000C61B342C4608033C0318342CFF30F80028
:100860000330F9003F2C3F2CC61F3B2C0030F80012
:10087000F9003F2C3F2C4508F8004608F900080015
:100880004E0B432C462C4030CF00472CCF0101307B
:100890004D02CF074F088038D000D1015008D20058
:1008A0008E2008004C08073A0319602C0B3A0319F4
:1008B000652C063A03196D2C023A0319732C782C17
:1008C0000130CD00CE0040247D2CD1010130D2007A
:1008D0008E200230CD0067207D2C0130CD0002300B
:1008E000CE0040247D2CD1011030D2008E207D2CF2
:1008F0000130D1004C08D2008E2008000B08C40043
:100900008B13831603178C170C14000000000318B8
:10091000B02C83120C087F390313C50003170D0890
:100920000313C60003170F080313C7004508CC00C4
:100930005224460803178D000313470803178F003E
:1009400083168C170C140000000083120313C30BD2
:10095000AA2CAD2C83160317B02CCF2C83160317AB
:1009600083120C0D0E0D7F390313C50003170D08FC
:100970000313C60003170F080313C7004508CC0074
:100980005224460803178D000313470803178F00EE
:100990008D0A03198F0A03100313C30B812CC41B88
:1009A0008B170800CB010408CA004B10831B4B14A3
:1009B000440EF038C600C607E23EC700323EC9000A
:1009C00044080F39C707C707C907E93EC800C80769
:1009D000C807430E0F39C807C907C80DC90DC90993
:1009E000C90D43080F39C907C60D0730C5000A30C5
:1009F000C907C803031CF82CC807C703031CFC2C39
:100A0000C707C603031C002DC607C503031C042D1E
:100A100045308400831307304A054A138407493060
:100A2000040203194A170008F700031D1F2D4A1B73
:100A30001F2D4A1A312DCA191F2D2030222DCA15FB
:100A40004A123030F707C4010408C3004410831B66
:100A500044147708CC0052244308840083134418BC
:100A60008317840A4A1F0F2D0800A901FF30AA002E
:100A700083161F149F141F159F1107309C008313AA
:100A80001F3083058312B001AF01B201B1010A30FA
:100A9000B3003C30B400CE280A30CD0067200030CF
:100AA000831687008312AA00AA0083168701831287
:100AB00087012A112A0883168700831207110C3038
:100AC00097000030F80006389200FF30831692003D
:100AD0001F109F101F159F111F1383121F139F17A5
:100AE00083169F1783121F148B15C0308B040B10B5
:100AF0000030F8001F08C73978049F000230F70063
:100B0000F70B802D832D00001F151F19852D8316CF
:100B10001E088312AD001E08AE002E08C6002D0868
:100B2000C50001217A08C4007908C3007808C20012
:100B30007708C1007A08C8007908C7007808C6009D
:100B40007708C500CC01CB017A30CA008630C900D5
:100B50001E217A08C4007908C3007808C20077080B
:100B6000C1007A08C8007908C7007808C60077086D
:100B7000C500CC01C030CB007F30CA008830C9002E
:100B800093217A08C4007908C3007808C200770866
:100B9000C10083107A08C8007908C7007808C60029
:100BA0007708C500CC01CB012030CA008330C900D2
:100BB0005D227A08C8007908C7007808C60077085F
:100BC000C5009E237908B6007808B5000830F80003
:100BD0001F08C73978049F000230F700F70BEE2D8D
:100BE000F12D00001F151F19F32D83161E08831207
:100BF000AB001E08AC002C08C6002B08C500012164
:100C00007A08C4007908C3007808C2007708C100D8
:100C10007A08C8007908C7007808C6007708C500B8
:100C2000CC01C030CB007F30CA008830C90093218E
:100C30007A08C4007908C3007808C2007708C100A8
:100C4000C6013408C50001214408C8004308C70094
:100C50004208C6004108C5007A08CC007908CB00DC
:100C60007808CA007708C9001E217A08C4007908EC
:100C7000C3007808C2007708C100C6013308C50068
:100C8000012183107A08C8007908C7007808C600D7
:100C90007708C5004408CC004308CB004208CA00CE
:100CA0004108C9005D227A08C8007908C7007808A1
:100CB000C6007708C5009E237908B8007808B700F9
:100CC000BD2B7908BA007808B90039083A0403192D
:100CD0006F2E3908B1073A0803183A0FB2073208E5
:100CE000C6003108C50001217A08C8007908C7008C
:100CF0007808C6007708C500CC01CB013430CA00A3
:100D00008730C90093217A08BE007908BD007808B1
:100D1000BC007708BB003E08C8003D08C7003C087F
:100D2000C6003B08C500CC01CB013430CA00873077
:100D3000C9001E217A08C8007908C7007808C600D3
:100D40007708C5009E237908C2007808C100790899
:100D5000C4007808C3000130C6006830C500E12B2C
:100D60007708BF007A08C00040083602031CEF2E47
:100D7000031DBE2E3F083502031CEF2E3F0835022F
:100D8000AF003608B0004008031C400FB00238081E
:100D9000C2003708C1003008C4002F08C30008246F
:100DA0007908C2007808C100C20CC10CC20CC10C89
:100DB000C20C41089500C20C420C3039F7001708EC
:100DC000CF39770497002A102A08831687008312E8
:100DD0000714AA102A088316870083128710360882
:100DE0004002031C2A2F031DF92E3F083502031869
:100DF0002A2F35083F02AF004008B0003608031C18
:100E0000360FB0023808C2003708C1003008C400ED
:100E10002F08C30008247908C2007808C100C20C5A
:100E2000C10CC20CC10CC20C41089500C20C420C92
:100E30003039F7001708CF39770497002A102A08AD
:100E40008316870083120710AA102A0883168700CA
:100E500083128714583003178D0000308F00031061
:100E600005300313C3007E24103084003608C4000C
:100E70003508C300D2242030CC0052242030CC00CE
:100E800052242030CC0052244B30CC0052247030FD
:100E9000CC0052243D30CC0052241030840038085D
:100EA000C4003708C300D2245E3003178D00003021
:100EB0008F00031005300313C3007E24103084001C
:100EC0003208C4003108C300D2242030CC005224A0
:100ED0003808C2003708C1003008C4002F08C3001A
:100EE00008247908C2007808C100633003178D0018
:100EF00000308F00031004300313C3007E24103031
:100F000084004208C4004108C300D2240A30CD0046
:060F10006720782D63004C
:02400E00393F38
:00000001FF
;PIC16F877A
;CRC=3C69  CREATED="07-Haz-21 15:57"
